{
  "contractName": "CarExchange",
  "abi": [
    {
      "constant": true,
      "inputs": [],
      "name": "owner",
      "outputs": [
        {
          "name": "",
          "type": "address"
        }
      ],
      "payable": false,
      "stateMutability": "view",
      "type": "function"
    },
    {
      "constant": false,
      "inputs": [
        {
          "name": "_newOwner",
          "type": "address"
        }
      ],
      "name": "changeOwner",
      "outputs": [],
      "payable": false,
      "stateMutability": "nonpayable",
      "type": "function"
    },
    {
      "constant": true,
      "inputs": [
        {
          "name": "",
          "type": "uint256"
        }
      ],
      "name": "carStructs",
      "outputs": [
        {
          "name": "value",
          "type": "uint256"
        },
        {
          "name": "owner",
          "type": "address"
        },
        {
          "name": "listed",
          "type": "bool"
        },
        {
          "name": "index",
          "type": "uint256"
        }
      ],
      "payable": false,
      "stateMutability": "view",
      "type": "function"
    },
    {
      "anonymous": false,
      "inputs": [
        {
          "indexed": true,
          "name": "_vinNumber",
          "type": "uint256"
        },
        {
          "indexed": true,
          "name": "_owner",
          "type": "address"
        }
      ],
      "name": "Registered",
      "type": "event"
    },
    {
      "anonymous": false,
      "inputs": [
        {
          "indexed": true,
          "name": "_vinNumber",
          "type": "uint256"
        },
        {
          "indexed": true,
          "name": "_oldOwner",
          "type": "address"
        },
        {
          "indexed": true,
          "name": "_newOwner",
          "type": "address"
        },
        {
          "indexed": false,
          "name": "_value",
          "type": "uint256"
        }
      ],
      "name": "Bought",
      "type": "event"
    },
    {
      "anonymous": false,
      "inputs": [
        {
          "indexed": true,
          "name": "_vinNumber",
          "type": "uint256"
        },
        {
          "indexed": true,
          "name": "_carOwner",
          "type": "address"
        },
        {
          "indexed": false,
          "name": "_value",
          "type": "uint256"
        }
      ],
      "name": "Listed",
      "type": "event"
    },
    {
      "anonymous": false,
      "inputs": [],
      "name": "OwnerChanged",
      "type": "event"
    },
    {
      "constant": false,
      "inputs": [
        {
          "name": "_owner",
          "type": "address"
        },
        {
          "name": "_vinNumber",
          "type": "uint256"
        }
      ],
      "name": "removeOwnership",
      "outputs": [
        {
          "name": "success",
          "type": "bool"
        }
      ],
      "payable": false,
      "stateMutability": "nonpayable",
      "type": "function"
    },
    {
      "constant": false,
      "inputs": [
        {
          "name": "_owner",
          "type": "address"
        },
        {
          "name": "_vinNumber",
          "type": "uint256"
        }
      ],
      "name": "register",
      "outputs": [
        {
          "name": "success",
          "type": "bool"
        }
      ],
      "payable": false,
      "stateMutability": "nonpayable",
      "type": "function"
    },
    {
      "constant": false,
      "inputs": [
        {
          "name": "_vinNumber",
          "type": "uint256"
        },
        {
          "name": "_value",
          "type": "uint256"
        }
      ],
      "name": "buy",
      "outputs": [
        {
          "name": "success",
          "type": "bool"
        }
      ],
      "payable": true,
      "stateMutability": "payable",
      "type": "function"
    },
    {
      "constant": false,
      "inputs": [
        {
          "name": "_vinNumber",
          "type": "uint256"
        },
        {
          "name": "_value",
          "type": "uint256"
        }
      ],
      "name": "list",
      "outputs": [
        {
          "name": "success",
          "type": "bool"
        }
      ],
      "payable": false,
      "stateMutability": "nonpayable",
      "type": "function"
    },
    {
      "constant": true,
      "inputs": [
        {
          "name": "_owner",
          "type": "address"
        }
      ],
      "name": "ownedCars",
      "outputs": [
        {
          "name": "vinNumbers",
          "type": "uint256[]"
        }
      ],
      "payable": false,
      "stateMutability": "view",
      "type": "function"
    }
  ],
  "bytecode": "0x6080604052336000806101000a81548173ffffffffffffffffffffffffffffffffffffffff021916908373ffffffffffffffffffffffffffffffffffffffff160217905550611080806100536000396000f30060806040526004361061008e576000357c0100000000000000000000000000000000000000000000000000000000900463ffffffff1680631b5611ea146100935780632eaad6ec1461012b57806350fd7367146101905780636d705ebb146101df5780638da5cb5b14610244578063a6f9dae11461029b578063bfd79292146102de578063d6febde814610364575b600080fd5b34801561009f57600080fd5b506100d4600480360381019080803573ffffffffffffffffffffffffffffffffffffffff1690602001909291905050506103a6565b6040518080602001828103825283818151815260200191508051906020019060200280838360005b838110156101175780820151818401526020810190506100fc565b505050509050019250505060405180910390f35b34801561013757600080fd5b50610176600480360381019080803573ffffffffffffffffffffffffffffffffffffffff16906020019092919080359060200190929190505050610479565b604051808215151515815260200191505060405180910390f35b34801561019c57600080fd5b506101c5600480360381019080803590602001909291908035906020019092919050505061049e565b604051808215151515815260200191505060405180910390f35b3480156101eb57600080fd5b5061022a600480360381019080803573ffffffffffffffffffffffffffffffffffffffff16906020019092919080359060200190929190505050610624565b604051808215151515815260200191505060405180910390f35b34801561025057600080fd5b50610259610885565b604051808273ffffffffffffffffffffffffffffffffffffffff1673ffffffffffffffffffffffffffffffffffffffff16815260200191505060405180910390f35b3480156102a757600080fd5b506102dc600480360381019080803573ffffffffffffffffffffffffffffffffffffffff1690602001909291905050506108aa565b005b3480156102ea57600080fd5b50610309600480360381019080803590602001909291905050506109ab565b604051808581526020018473ffffffffffffffffffffffffffffffffffffffff1673ffffffffffffffffffffffffffffffffffffffff1681526020018315151515815260200182815260200194505050505060405180910390f35b61038c6004803603810190808035906020019092919080359060200190929190505050610a08565b604051808215151515815260200191505060405180910390f35b6060600073ffffffffffffffffffffffffffffffffffffffff168273ffffffffffffffffffffffffffffffffffffffff16141515156103e457600080fd5b600360008373ffffffffffffffffffffffffffffffffffffffff1673ffffffffffffffffffffffffffffffffffffffff16815260200190815260200160002080548060200260200160405190810160405280929190818152602001828054801561046d57602002820191906000526020600020905b815481526020019060010190808311610459575b50505050509050919050565b6000806104868484610d22565b90506104928482610da0565b50600191505092915050565b60008073ffffffffffffffffffffffffffffffffffffffff163373ffffffffffffffffffffffffffffffffffffffff16141515156104db57600080fd5b3373ffffffffffffffffffffffffffffffffffffffff166002600085815260200190815260200160002060010160009054906101000a900473ffffffffffffffffffffffffffffffffffffffff1673ffffffffffffffffffffffffffffffffffffffff1614151561054b57600080fd5b81600260008581526020019081526020016000206000018190555060016002600085815260200190815260200160002060010160146101000a81548160ff0219169083151502179055506002600084815260200190815260200160002060010160009054906101000a900473ffffffffffffffffffffffffffffffffffffffff1673ffffffffffffffffffffffffffffffffffffffff16837f50955776c5778c3b7d968d86d8c51fb6b29a7a74c20866b533268e209fc08343846040518082815260200191505060405180910390a36001905092915050565b60008073ffffffffffffffffffffffffffffffffffffffff168373ffffffffffffffffffffffffffffffffffffffff161415151561066157600080fd5b826002600084815260200190815260200160002060010160006101000a81548173ffffffffffffffffffffffffffffffffffffffff021916908373ffffffffffffffffffffffffffffffffffffffff1602179055506000600260008481526020019081526020016000206000018190555060006002600084815260200190815260200160002060010160146101000a81548160ff02191690831515021790555060018083908060018154018082558091505090600182039060005260206000200160009091929091909150550360026000848152602001908152602001600020600201819055506001600460008573ffffffffffffffffffffffffffffffffffffffff1673ffffffffffffffffffffffffffffffffffffffff1681526020019081526020016000205401600460008573ffffffffffffffffffffffffffffffffffffffff1673ffffffffffffffffffffffffffffffffffffffff16815260200190815260200160002081905550600360008473ffffffffffffffffffffffffffffffffffffffff1673ffffffffffffffffffffffffffffffffffffffff1681526020019081526020016000208290806001815401808255809150509060018203906000526020600020016000909192909190915055508273ffffffffffffffffffffffffffffffffffffffff16827f6cd8594df6446610564bf1ea1e804402ea0006dc7b541d3a430d1ea0a62cffd460405160405180910390a36001905092915050565b6000809054906101000a900473ffffffffffffffffffffffffffffffffffffffff1681565b6000809054906101000a900473ffffffffffffffffffffffffffffffffffffffff1673ffffffffffffffffffffffffffffffffffffffff163373ffffffffffffffffffffffffffffffffffffffff1614151561090557600080fd5b600073ffffffffffffffffffffffffffffffffffffffff168173ffffffffffffffffffffffffffffffffffffffff1614151561097c57806000806101000a81548173ffffffffffffffffffffffffffffffffffffffff021916908373ffffffffffffffffffffffffffffffffffffffff1602179055505b7fa210d63b5a22487066397c631c738bc560e60390098601461599961c472139f060405160405180910390a150565b60026020528060005260406000206000915090508060000154908060010160009054906101000a900473ffffffffffffffffffffffffffffffffffffffff16908060010160149054906101000a900460ff16908060020154905084565b600080600073ffffffffffffffffffffffffffffffffffffffff163373ffffffffffffffffffffffffffffffffffffffff1614151515610a4757600080fd5b6002600085815260200190815260200160002060010160149054906101000a900460ff161515610a7657600080fd5b600260008581526020019081526020016000206000015434141515610a9a57600080fd5b6002600085815260200190815260200160002060010160009054906101000a900473ffffffffffffffffffffffffffffffffffffffff169050336002600086815260200190815260200160002060010160006101000a81548173ffffffffffffffffffffffffffffffffffffffff021916908373ffffffffffffffffffffffffffffffffffffffff16021790555060006002600086815260200190815260200160002060010160146101000a81548160ff021916908315150217905550600360003373ffffffffffffffffffffffffffffffffffffffff1673ffffffffffffffffffffffffffffffffffffffff168152602001908152602001600020849080600181540180825580915050906001820390600052602060002001600090919290919091505550610bca8185610479565b50600460003373ffffffffffffffffffffffffffffffffffffffff1673ffffffffffffffffffffffffffffffffffffffff16815260200190815260200160002060008154809291906001019190505550600460008273ffffffffffffffffffffffffffffffffffffffff1673ffffffffffffffffffffffffffffffffffffffff16815260200190815260200160002060008154809291906001900391905055508073ffffffffffffffffffffffffffffffffffffffff166108fc349081150290604051600060405180830381858888f19350505050158015610cb0573d6000803e3d6000fd5b503373ffffffffffffffffffffffffffffffffffffffff168173ffffffffffffffffffffffffffffffffffffffff16857f888231f55a3cd8fd72276bc1b12ed5a60f8d92e62d288e64bf29dd6e5fc7809a346040518082815260200191505060405180910390a4600191505092915050565b600080600090505b82600360008673ffffffffffffffffffffffffffffffffffffffff1673ffffffffffffffffffffffffffffffffffffffff16815260200190815260200160002082815481101515610d7757fe5b9060005260206000200154141515610d96578080600101915050610d2a565b8091505092915050565b600080600360008573ffffffffffffffffffffffffffffffffffffffff1673ffffffffffffffffffffffffffffffffffffffff1681526020019081526020016000208054905083101515610df357610ffc565b8290505b6001600360008673ffffffffffffffffffffffffffffffffffffffff1673ffffffffffffffffffffffffffffffffffffffff1681526020019081526020016000208054905003811015610f0557600360008573ffffffffffffffffffffffffffffffffffffffff1673ffffffffffffffffffffffffffffffffffffffff16815260200190815260200160002060018201815481101515610e9357fe5b9060005260206000200154600360008673ffffffffffffffffffffffffffffffffffffffff1673ffffffffffffffffffffffffffffffffffffffff16815260200190815260200160002082815481101515610eea57fe5b90600052602060002001819055508080600101915050610df7565b600360008573ffffffffffffffffffffffffffffffffffffffff1673ffffffffffffffffffffffffffffffffffffffff1681526020019081526020016000206001600360008773ffffffffffffffffffffffffffffffffffffffff1673ffffffffffffffffffffffffffffffffffffffff1681526020019081526020016000208054905003815481101515610f9657fe5b9060005260206000200160009055600360008573ffffffffffffffffffffffffffffffffffffffff1673ffffffffffffffffffffffffffffffffffffffff168152602001908152602001600020805480919060019003610ff69190611003565b50600191505b5092915050565b81548183558181111561102a57818360005260206000209182019101611029919061102f565b5b505050565b61105191905b8082111561104d576000816000905550600101611035565b5090565b905600a165627a7a72305820e9b7d9209a629937a4cc3a6a4734b2f4f0ecb369cfcf89022ae5c6bc5c2fbf820029",
  "source": "pragma solidity ^0.4.23;\r\n\r\nimport \"./Ownable.sol\";\r\n\r\ncontract CarExchange is Ownable {\r\n    \r\n    // We emit this event whenever a car is newly registered to the blockchain\r\n    event Registered(uint indexed _vinNumber, address indexed _owner);\r\n\r\n    // We emit this event whenver a car is bought from seller to buyer\r\n    event Bought(uint indexed _vinNumber, address indexed _oldOwner, address indexed _newOwner, uint _value);\r\n\r\n    // We emit this event whenver a car is listed for sale\r\n    event Listed(uint indexed _vinNumber, address indexed _carOwner, uint _value);\r\n\r\n\r\n    struct Car{\r\n        uint value;\r\n        address owner;\r\n        bool listed;\r\n        uint index;\r\n    }\r\n\r\n    // A list of all registered cars\r\n    uint[] cars;\r\n    mapping (uint => Car) public carStructs;\r\n\r\n    // A list of registered cars per owner\r\n    mapping (address => uint[]) ownerToCars ;\r\n\r\n    // A list of car count per owner\r\n    mapping (address => uint256) ownerCarCount;\r\n\r\n\r\n\r\n    function indexOf(address _owner, uint _vinNumber) internal view returns (uint){\r\n        uint i = 0;\r\n        while(ownerToCars[_owner][i] != _vinNumber){\r\n            i++;\r\n        }\r\n        return i;\r\n    }\r\n\r\n\r\n    function removeOwnershipAtIndex(address _owner, uint _index) internal returns (bool success){\r\n        if(_index >= ownerToCars[_owner].length) return;\r\n\r\n        for(uint i = _index; i < ownerToCars[_owner].length-1; i++){\r\n            ownerToCars[_owner][i] = ownerToCars[_owner][i+1];\r\n        }\r\n\r\n        delete ownerToCars[_owner][ownerToCars[_owner].length-1];\r\n        ownerToCars[_owner].length--;\r\n        return true;\r\n    }\r\n\r\n    function removeOwnership(address _owner, uint _vinNumber) public returns (bool success){\r\n        uint index = indexOf(_owner, _vinNumber);\r\n        removeOwnershipAtIndex(_owner, index);\r\n        return true;\r\n    }\r\n\r\n\r\n\r\n\r\n    function register(address _owner, uint _vinNumber) public returns (bool success){\r\n        require(_owner != address(0)) ;\r\n\r\n        carStructs[_vinNumber].owner = _owner;\r\n        carStructs[_vinNumber].value = 0;\r\n        carStructs[_vinNumber].listed = false;\r\n        carStructs[_vinNumber].index = cars.push(_vinNumber) - 1;\r\n\r\n        ownerCarCount[_owner] = ownerCarCount[_owner] + 1;\r\n\r\n        ownerToCars[_owner].push(_vinNumber);\r\n\r\n        emit Registered(_vinNumber, _owner);\r\n\r\n        return true;\r\n\r\n    }\r\n\r\n\r\n\r\n\r\n    function buy(uint _vinNumber, uint _value) public payable returns (bool success){\r\n        // require that the buyer is a true person\r\n        require(msg.sender != address(0));\r\n        //require that the car is for sale\r\n        require(carStructs[_vinNumber].listed);\r\n        //require that the amount of ether sent is equal to the value of that car\r\n        require(msg.value == carStructs[_vinNumber].value);\r\n\r\n        address previousOwner = carStructs[_vinNumber].owner;\r\n\r\n        //change the ownershipt of the car\r\n        carStructs[_vinNumber].owner = msg.sender;\r\n        carStructs[_vinNumber].listed = false;\r\n\r\n        ownerToCars[msg.sender].push(_vinNumber);\r\n        removeOwnership(previousOwner, _vinNumber);\r\n\r\n        ownerCarCount[msg.sender]++;\r\n        ownerCarCount[previousOwner]-- ;\r\n\r\n        // transfer the money to the seller\r\n        previousOwner.transfer(msg.value);\r\n\r\n        emit Bought(_vinNumber, previousOwner, msg.sender, msg.value);\r\n\r\n        return true;\r\n\r\n    }\r\n\r\n\r\n    function list(uint _vinNumber, uint _value) public returns (bool success){\r\n        //require that the user is a true user\r\n        require(msg.sender != address(0));\r\n\r\n        // require that msg.sender is the owner of the car\r\n        require(carStructs[_vinNumber].owner == msg.sender);\r\n\r\n        carStructs[_vinNumber].value = _value;\r\n        carStructs[_vinNumber].listed = true;\r\n\r\n        emit Listed(_vinNumber, carStructs[_vinNumber].owner, _value);\r\n\r\n        return true;\r\n    }\r\n\r\n\r\n    function ownedCars(address _owner) external view returns (uint[] vinNumbers){\r\n        require(_owner != address(0));\r\n        return ownerToCars[_owner];\r\n    }\r\n\r\n}",
  "sourcePath": "C:\\Users\\ab\\Documents\\upwork jobs\\smal car listing smart contract\\contracts\\CarExchange.sol",
  "compiler": {
    "name": "solc",
    "version": "0.4.24+commit.e67f0147.Emscripten.clang"
  },
  "schemaVersion": "2.0.1",
  "updatedAt": "2018-09-28T10:47:45.002Z"
}