{
  "contractName": "CarExchange",
  "abi": [
    {
      "constant": true,
      "inputs": [],
      "name": "owner",
      "outputs": [
        {
          "name": "",
          "type": "address"
        }
      ],
      "payable": false,
      "stateMutability": "view",
      "type": "function"
    },
    {
      "constant": false,
      "inputs": [
        {
          "name": "_newOwner",
          "type": "address"
        }
      ],
      "name": "changeOwner",
      "outputs": [],
      "payable": false,
      "stateMutability": "nonpayable",
      "type": "function"
    },
    {
      "constant": true,
      "inputs": [
        {
          "name": "",
          "type": "uint256"
        }
      ],
      "name": "carStructs",
      "outputs": [
        {
          "name": "value",
          "type": "uint256"
        },
        {
          "name": "owner",
          "type": "address"
        },
        {
          "name": "listed",
          "type": "bool"
        },
        {
          "name": "index",
          "type": "uint256"
        }
      ],
      "payable": false,
      "stateMutability": "view",
      "type": "function"
    },
    {
      "anonymous": false,
      "inputs": [
        {
          "indexed": true,
          "name": "_vinNumber",
          "type": "uint256"
        },
        {
          "indexed": true,
          "name": "_owner",
          "type": "address"
        }
      ],
      "name": "Registered",
      "type": "event"
    },
    {
      "anonymous": false,
      "inputs": [
        {
          "indexed": true,
          "name": "_vinNumber",
          "type": "uint256"
        },
        {
          "indexed": true,
          "name": "_oldOwner",
          "type": "address"
        },
        {
          "indexed": true,
          "name": "_newOwner",
          "type": "address"
        },
        {
          "indexed": false,
          "name": "_value",
          "type": "uint256"
        }
      ],
      "name": "Bought",
      "type": "event"
    },
    {
      "anonymous": false,
      "inputs": [
        {
          "indexed": true,
          "name": "_vinNumber",
          "type": "uint256"
        },
        {
          "indexed": true,
          "name": "_carOwner",
          "type": "address"
        },
        {
          "indexed": false,
          "name": "_value",
          "type": "uint256"
        }
      ],
      "name": "Listed",
      "type": "event"
    },
    {
      "anonymous": false,
      "inputs": [],
      "name": "OwnerChanged",
      "type": "event"
    },
    {
      "constant": true,
      "inputs": [],
      "name": "getCarCount",
      "outputs": [
        {
          "name": "",
          "type": "uint256"
        }
      ],
      "payable": false,
      "stateMutability": "view",
      "type": "function"
    },
    {
      "constant": true,
      "inputs": [
        {
          "name": "_vinNumber",
          "type": "uint256"
        }
      ],
      "name": "getCar",
      "outputs": [
        {
          "name": "value",
          "type": "uint256"
        },
        {
          "name": "owner",
          "type": "address"
        },
        {
          "name": "listed",
          "type": "bool"
        },
        {
          "name": "index",
          "type": "uint256"
        }
      ],
      "payable": false,
      "stateMutability": "view",
      "type": "function"
    },
    {
      "constant": true,
      "inputs": [
        {
          "name": "_owner",
          "type": "address"
        }
      ],
      "name": "getCarCountPerOwner",
      "outputs": [
        {
          "name": "count",
          "type": "uint256"
        }
      ],
      "payable": false,
      "stateMutability": "view",
      "type": "function"
    },
    {
      "constant": false,
      "inputs": [
        {
          "name": "_owner",
          "type": "address"
        },
        {
          "name": "_vinNumber",
          "type": "uint256"
        }
      ],
      "name": "removeOwnership",
      "outputs": [
        {
          "name": "success",
          "type": "bool"
        }
      ],
      "payable": false,
      "stateMutability": "nonpayable",
      "type": "function"
    },
    {
      "constant": false,
      "inputs": [
        {
          "name": "_owner",
          "type": "address"
        },
        {
          "name": "_vinNumber",
          "type": "uint256"
        }
      ],
      "name": "register",
      "outputs": [
        {
          "name": "success",
          "type": "bool"
        }
      ],
      "payable": false,
      "stateMutability": "nonpayable",
      "type": "function"
    },
    {
      "constant": false,
      "inputs": [
        {
          "name": "_vinNumber",
          "type": "uint256"
        },
        {
          "name": "_value",
          "type": "uint256"
        }
      ],
      "name": "buy",
      "outputs": [
        {
          "name": "success",
          "type": "bool"
        }
      ],
      "payable": true,
      "stateMutability": "payable",
      "type": "function"
    },
    {
      "constant": false,
      "inputs": [
        {
          "name": "_vinNumber",
          "type": "uint256"
        },
        {
          "name": "_value",
          "type": "uint256"
        }
      ],
      "name": "list",
      "outputs": [
        {
          "name": "success",
          "type": "bool"
        }
      ],
      "payable": false,
      "stateMutability": "nonpayable",
      "type": "function"
    },
    {
      "constant": true,
      "inputs": [
        {
          "name": "_owner",
          "type": "address"
        }
      ],
      "name": "ownedCars",
      "outputs": [
        {
          "name": "vinNumbers",
          "type": "uint256[]"
        }
      ],
      "payable": false,
      "stateMutability": "view",
      "type": "function"
    },
    {
      "constant": true,
      "inputs": [],
      "name": "getAllListedCars",
      "outputs": [
        {
          "name": "",
          "type": "uint256"
        },
        {
          "name": "",
          "type": "uint256[]"
        },
        {
          "name": "",
          "type": "uint256[]"
        },
        {
          "name": "",
          "type": "address[]"
        }
      ],
      "payable": false,
      "stateMutability": "view",
      "type": "function"
    }
  ],
  "bytecode": "0x6080604052336000806101000a81548173ffffffffffffffffffffffffffffffffffffffff021916908373ffffffffffffffffffffffffffffffffffffffff1602179055506115b4806100536000396000f3006080604052600436106100ba576000357c0100000000000000000000000000000000000000000000000000000000900463ffffffff1680631b5611ea146100bf57806322d4c7be1461015757806327436b59146101ae5780632eaad6ec146101d957806350fd73671461023e57806357aeeb041461028d5780635e8be190146103905780636d705ebb146104165780638da5cb5b1461047b578063a6f9dae1146104d2578063bfd7929214610515578063d6febde81461059b575b600080fd5b3480156100cb57600080fd5b50610100600480360381019080803573ffffffffffffffffffffffffffffffffffffffff1690602001909291905050506105dd565b6040518080602001828103825283818151815260200191508051906020019060200280838360005b83811015610143578082015181840152602081019050610128565b505050509050019250505060405180910390f35b34801561016357600080fd5b50610198600480360381019080803573ffffffffffffffffffffffffffffffffffffffff1690602001909291905050506106b0565b6040518082815260200191505060405180910390f35b3480156101ba57600080fd5b506101c3610734565b6040518082815260200191505060405180910390f35b3480156101e557600080fd5b50610224600480360381019080803573ffffffffffffffffffffffffffffffffffffffff16906020019092919080359060200190929190505050610741565b604051808215151515815260200191505060405180910390f35b34801561024a57600080fd5b506102736004803603810190808035906020019092919080359060200190929190505050610766565b604051808215151515815260200191505060405180910390f35b34801561029957600080fd5b506102a26108b6565b60405180858152602001806020018060200180602001848103845287818151815260200191508051906020019060200280838360005b838110156102f35780820151818401526020810190506102d8565b50505050905001848103835286818151815260200191508051906020019060200280838360005b8381101561033557808201518184015260208101905061031a565b50505050905001848103825285818151815260200191508051906020019060200280838360005b8381101561037757808201518184015260208101905061035c565b5050505090500197505050505050505060405180910390f35b34801561039c57600080fd5b506103bb60048036038101908080359060200190929190505050610aba565b604051808581526020018473ffffffffffffffffffffffffffffffffffffffff1673ffffffffffffffffffffffffffffffffffffffff1681526020018315151515815260200182815260200194505050505060405180910390f35b34801561042257600080fd5b50610461600480360381019080803573ffffffffffffffffffffffffffffffffffffffff16906020019092919080359060200190929190505050610b58565b604051808215151515815260200191505060405180910390f35b34801561048757600080fd5b50610490610db9565b604051808273ffffffffffffffffffffffffffffffffffffffff1673ffffffffffffffffffffffffffffffffffffffff16815260200191505060405180910390f35b3480156104de57600080fd5b50610513600480360381019080803573ffffffffffffffffffffffffffffffffffffffff169060200190929190505050610dde565b005b34801561052157600080fd5b5061054060048036038101908080359060200190929190505050610edf565b604051808581526020018473ffffffffffffffffffffffffffffffffffffffff1673ffffffffffffffffffffffffffffffffffffffff1681526020018315151515815260200182815260200194505050505060405180910390f35b6105c36004803603810190808035906020019092919080359060200190929190505050610f3c565b604051808215151515815260200191505060405180910390f35b6060600073ffffffffffffffffffffffffffffffffffffffff168273ffffffffffffffffffffffffffffffffffffffff161415151561061b57600080fd5b600360008373ffffffffffffffffffffffffffffffffffffffff1673ffffffffffffffffffffffffffffffffffffffff1681526020019081526020016000208054806020026020016040519081016040528092919081815260200182805480156106a457602002820191906000526020600020905b815481526020019060010190808311610690575b50505050509050919050565b60008073ffffffffffffffffffffffffffffffffffffffff168273ffffffffffffffffffffffffffffffffffffffff16141515156106ed57600080fd5b600460008373ffffffffffffffffffffffffffffffffffffffff1673ffffffffffffffffffffffffffffffffffffffff168152602001908152602001600020549050919050565b6000600180549050905090565b60008061074e8484611256565b905061075a84826112d4565b50600191505092915050565b60008073ffffffffffffffffffffffffffffffffffffffff163373ffffffffffffffffffffffffffffffffffffffff16141515156107a357600080fd5b3373ffffffffffffffffffffffffffffffffffffffff166002600085815260200190815260200160002060010160009054906101000a900473ffffffffffffffffffffffffffffffffffffffff1673ffffffffffffffffffffffffffffffffffffffff1614151561081357600080fd5b81600260008581526020019081526020016000206000018190555060016002600085815260200190815260200160002060010160146101000a81548160ff0219169083151502179055503373ffffffffffffffffffffffffffffffffffffffff16837f50955776c5778c3b7d968d86d8c51fb6b29a7a74c20866b533268e209fc08343846040518082815260200191505060405180910390a36001905092915050565b600060608060608060608060008060006001805490506040519080825280602002602001820160405280156108fa5781602001602082028038833980820191505090505b5095506001805490506040519080825280602002602001820160405280156109315781602001602082028038833980820191505090505b5094506001805490506040519080825280602002602001820160405280156109685781602001602082028038833980820191505090505b50935060009250600091505b600180549050821015610aa2576002600060018481548110151561099457fe5b9060005260206000200154815260200190815260200160002090508060010160149054906101000a900460ff1615610a95576001828154811015156109d557fe5b906000526020600020015486848151811015156109ee57fe5b906020019060200201818152505080600001548584815181101515610a0f57fe5b90602001906020020181815250508060010160009054906101000a900473ffffffffffffffffffffffffffffffffffffffff168484815181101515610a5057fe5b9060200190602002019073ffffffffffffffffffffffffffffffffffffffff16908173ffffffffffffffffffffffffffffffffffffffff168152505082806001019350505b8180600101925050610974565b82868686995099509950995050505050505090919293565b60008060008060026000868152602001908152602001600020600001546002600087815260200190815260200160002060010160009054906101000a900473ffffffffffffffffffffffffffffffffffffffff166002600088815260200190815260200160002060010160149054906101000a900460ff16600260008981526020019081526020016000206002015493509350935093509193509193565b60008073ffffffffffffffffffffffffffffffffffffffff168373ffffffffffffffffffffffffffffffffffffffff1614151515610b9557600080fd5b826002600084815260200190815260200160002060010160006101000a81548173ffffffffffffffffffffffffffffffffffffffff021916908373ffffffffffffffffffffffffffffffffffffffff1602179055506000600260008481526020019081526020016000206000018190555060006002600084815260200190815260200160002060010160146101000a81548160ff02191690831515021790555060018083908060018154018082558091505090600182039060005260206000200160009091929091909150550360026000848152602001908152602001600020600201819055506001600460008573ffffffffffffffffffffffffffffffffffffffff1673ffffffffffffffffffffffffffffffffffffffff1681526020019081526020016000205401600460008573ffffffffffffffffffffffffffffffffffffffff1673ffffffffffffffffffffffffffffffffffffffff16815260200190815260200160002081905550600360008473ffffffffffffffffffffffffffffffffffffffff1673ffffffffffffffffffffffffffffffffffffffff1681526020019081526020016000208290806001815401808255809150509060018203906000526020600020016000909192909190915055508273ffffffffffffffffffffffffffffffffffffffff16827f6cd8594df6446610564bf1ea1e804402ea0006dc7b541d3a430d1ea0a62cffd460405160405180910390a36001905092915050565b6000809054906101000a900473ffffffffffffffffffffffffffffffffffffffff1681565b6000809054906101000a900473ffffffffffffffffffffffffffffffffffffffff1673ffffffffffffffffffffffffffffffffffffffff163373ffffffffffffffffffffffffffffffffffffffff16141515610e3957600080fd5b600073ffffffffffffffffffffffffffffffffffffffff168173ffffffffffffffffffffffffffffffffffffffff16141515610eb057806000806101000a81548173ffffffffffffffffffffffffffffffffffffffff021916908373ffffffffffffffffffffffffffffffffffffffff1602179055505b7fa210d63b5a22487066397c631c738bc560e60390098601461599961c472139f060405160405180910390a150565b60026020528060005260406000206000915090508060000154908060010160009054906101000a900473ffffffffffffffffffffffffffffffffffffffff16908060010160149054906101000a900460ff16908060020154905084565b600080600073ffffffffffffffffffffffffffffffffffffffff163373ffffffffffffffffffffffffffffffffffffffff1614151515610f7b57600080fd5b6002600085815260200190815260200160002060010160149054906101000a900460ff161515610faa57600080fd5b600260008581526020019081526020016000206000015434141515610fce57600080fd5b6002600085815260200190815260200160002060010160009054906101000a900473ffffffffffffffffffffffffffffffffffffffff169050336002600086815260200190815260200160002060010160006101000a81548173ffffffffffffffffffffffffffffffffffffffff021916908373ffffffffffffffffffffffffffffffffffffffff16021790555060006002600086815260200190815260200160002060010160146101000a81548160ff021916908315150217905550600360003373ffffffffffffffffffffffffffffffffffffffff1673ffffffffffffffffffffffffffffffffffffffff1681526020019081526020016000208490806001815401808255809150509060018203906000526020600020016000909192909190915055506110fe8185610741565b50600460003373ffffffffffffffffffffffffffffffffffffffff1673ffffffffffffffffffffffffffffffffffffffff16815260200190815260200160002060008154809291906001019190505550600460008273ffffffffffffffffffffffffffffffffffffffff1673ffffffffffffffffffffffffffffffffffffffff16815260200190815260200160002060008154809291906001900391905055508073ffffffffffffffffffffffffffffffffffffffff166108fc349081150290604051600060405180830381858888f193505050501580156111e4573d6000803e3d6000fd5b503373ffffffffffffffffffffffffffffffffffffffff168173ffffffffffffffffffffffffffffffffffffffff16857f888231f55a3cd8fd72276bc1b12ed5a60f8d92e62d288e64bf29dd6e5fc7809a346040518082815260200191505060405180910390a4600191505092915050565b600080600090505b82600360008673ffffffffffffffffffffffffffffffffffffffff1673ffffffffffffffffffffffffffffffffffffffff168152602001908152602001600020828154811015156112ab57fe5b90600052602060002001541415156112ca57808060010191505061125e565b8091505092915050565b600080600360008573ffffffffffffffffffffffffffffffffffffffff1673ffffffffffffffffffffffffffffffffffffffff168152602001908152602001600020805490508310151561132757611530565b8290505b6001600360008673ffffffffffffffffffffffffffffffffffffffff1673ffffffffffffffffffffffffffffffffffffffff168152602001908152602001600020805490500381101561143957600360008573ffffffffffffffffffffffffffffffffffffffff1673ffffffffffffffffffffffffffffffffffffffff168152602001908152602001600020600182018154811015156113c757fe5b9060005260206000200154600360008673ffffffffffffffffffffffffffffffffffffffff1673ffffffffffffffffffffffffffffffffffffffff1681526020019081526020016000208281548110151561141e57fe5b9060005260206000200181905550808060010191505061132b565b600360008573ffffffffffffffffffffffffffffffffffffffff1673ffffffffffffffffffffffffffffffffffffffff1681526020019081526020016000206001600360008773ffffffffffffffffffffffffffffffffffffffff1673ffffffffffffffffffffffffffffffffffffffff16815260200190815260200160002080549050038154811015156114ca57fe5b9060005260206000200160009055600360008573ffffffffffffffffffffffffffffffffffffffff1673ffffffffffffffffffffffffffffffffffffffff16815260200190815260200160002080548091906001900361152a9190611537565b50600191505b5092915050565b81548183558181111561155e5781836000526020600020918201910161155d9190611563565b5b505050565b61158591905b80821115611581576000816000905550600101611569565b5090565b905600a165627a7a7230582061177700ff163f2b8b45565fa9e61293a62bfd8e9810e8aed12438a6d42ce1180029",
  "source": "pragma solidity ^0.4.23;\r\n\r\nimport \"./Ownable.sol\";\r\n\r\ncontract CarExchange is Ownable {\r\n    \r\n    // We emit this event whenever a car is newly registered to the blockchain\r\n    event Registered(uint indexed _vinNumber, address indexed _owner);\r\n\r\n    // We emit this event whenver a car is bought from seller to buyer\r\n    event Bought(uint indexed _vinNumber, address indexed _oldOwner, address indexed _newOwner, uint _value);\r\n\r\n    // We emit this event whenver a car is listed for sale\r\n    event Listed(uint indexed _vinNumber, address indexed _carOwner, uint _value);\r\n\r\n\r\n    struct Car{\r\n        uint value;\r\n        address owner;\r\n        bool listed;\r\n        uint index;\r\n    }\r\n\r\n    // A list of all registered cars\r\n    uint[] cars;\r\n    mapping (uint => Car) public carStructs;\r\n\r\n    // A list of registered cars per owner\r\n    mapping (address => uint[]) ownerToCars ;\r\n\r\n    // A list of car count per owner\r\n    mapping (address => uint) ownerCarCount;\r\n\r\n\r\n    function getCarCount() public view returns (uint){\r\n        return cars.length;\r\n    }\r\n\r\n    function getCar(uint _vinNumber) public view returns (uint value, address owner, bool listed, uint index){\r\n        return (carStructs[_vinNumber].value, carStructs[_vinNumber].owner, carStructs[_vinNumber].listed, carStructs[_vinNumber].index) ;\r\n    }\r\n\r\n    function getCarCountPerOwner(address _owner) public view returns (uint count){\r\n        require(_owner != address(0));\r\n        return ownerCarCount[_owner];\r\n    }\r\n\r\n    function indexOf(address _owner, uint _vinNumber) internal view returns (uint){\r\n        uint i = 0;\r\n        while(ownerToCars[_owner][i] != _vinNumber){\r\n            i++;\r\n        }\r\n        return i;\r\n    }\r\n\r\n\r\n    function removeOwnershipAtIndex(address _owner, uint _index) internal returns (bool success){\r\n        if(_index >= ownerToCars[_owner].length) return;\r\n\r\n        for(uint i = _index; i < ownerToCars[_owner].length-1; i++){\r\n            ownerToCars[_owner][i] = ownerToCars[_owner][i+1];\r\n        }\r\n\r\n        delete ownerToCars[_owner][ownerToCars[_owner].length-1];\r\n        ownerToCars[_owner].length--;\r\n        return true;\r\n    }\r\n\r\n    function removeOwnership(address _owner, uint _vinNumber) public returns (bool success){\r\n        uint index = indexOf(_owner, _vinNumber);\r\n        removeOwnershipAtIndex(_owner, index);\r\n        return true;\r\n    }\r\n\r\n\r\n\r\n\r\n    function register(address _owner, uint _vinNumber) public returns (bool success){\r\n        require(_owner != address(0)) ;\r\n\r\n        carStructs[_vinNumber].owner = _owner;\r\n        carStructs[_vinNumber].value = 0;\r\n        carStructs[_vinNumber].listed = false;\r\n        carStructs[_vinNumber].index = cars.push(_vinNumber) - 1;\r\n\r\n        ownerCarCount[_owner] = ownerCarCount[_owner] + 1;\r\n\r\n        ownerToCars[_owner].push(_vinNumber);\r\n\r\n        emit Registered(_vinNumber, _owner);\r\n\r\n        return true;\r\n\r\n    }\r\n\r\n\r\n\r\n\r\n    function buy(uint _vinNumber, uint _value) public payable returns (bool success){\r\n        // require that the buyer is a true person\r\n        require(msg.sender != address(0));\r\n        //require that the car is for sale\r\n        require(carStructs[_vinNumber].listed);\r\n        //require that the amount of ether sent is equal to the value of that car\r\n        require(msg.value == carStructs[_vinNumber].value);\r\n\r\n        address previousOwner = carStructs[_vinNumber].owner;\r\n\r\n        //change the ownershipt of the car\r\n        carStructs[_vinNumber].owner = msg.sender;\r\n        carStructs[_vinNumber].listed = false;\r\n\r\n        ownerToCars[msg.sender].push(_vinNumber);\r\n        removeOwnership(previousOwner, _vinNumber);\r\n\r\n        ownerCarCount[msg.sender]++;\r\n        ownerCarCount[previousOwner]-- ;\r\n\r\n        // transfer the money to the seller\r\n        previousOwner.transfer(msg.value);\r\n\r\n        emit Bought(_vinNumber, previousOwner, msg.sender, msg.value);\r\n\r\n        return true;\r\n\r\n    }\r\n\r\n\r\n    function list(uint _vinNumber, uint _value) public returns (bool success){\r\n        //require that the user is a true user\r\n        require(msg.sender != address(0));\r\n\r\n        // require that msg.sender is the owner of the car\r\n        require(carStructs[_vinNumber].owner == msg.sender);\r\n\r\n        carStructs[_vinNumber].value = _value;\r\n        carStructs[_vinNumber].listed = true;\r\n\r\n        emit Listed(_vinNumber, msg.sender, _value);\r\n\r\n        return true;\r\n    }\r\n\r\n\r\n    function ownedCars(address _owner) external view returns (uint[] vinNumbers){\r\n        require(_owner != address(0));\r\n        return ownerToCars[_owner];\r\n    }\r\n\r\n\r\n    function getAllListedCars() public view returns (uint, uint[], uint[], address[]){\r\n        uint[] memory carList = new uint[](cars.length);\r\n        uint[] memory valueList = new uint[](cars.length) ;\r\n        address[] memory ownerList = new address[](cars.length);\r\n\r\n        uint j = 0;\r\n\r\n        for(uint i=0; i < cars.length; i++){\r\n            Car storage car = carStructs[cars[i]];\r\n\r\n            if(car.listed){\r\n                carList[j] = cars[i];\r\n                valueList[j] = car.value;\r\n                ownerList[j] = car.owner;\r\n                j++;\r\n            }\r\n        }\r\n\r\n        return (j, carList, valueList, ownerList);\r\n    }\r\n\r\n}",
  "sourcePath": "C:\\Users\\ab\\Documents\\upwork jobs\\smal car listing smart contract\\contracts\\CarExchange.sol",
  "compiler": {
    "name": "solc",
    "version": "0.4.24+commit.e67f0147.Emscripten.clang"
  },
  "schemaVersion": "2.0.1",
  "updatedAt": "2018-09-28T14:27:51.896Z"
}